:1000000010C017C016C015C014C013C012C011C054
:1000100010C00FC00EC00DC00CC00BC00AC009C07C
:1000200008C011241FBECFE5D2E0DEBFCDBF45D052
:100030007DC0E6CF86B1866086B9089A379A089562
:10004000369A3699FECF84B195B10895D99AC19A5E
:10005000C2980895D998C198C29A24E6FC012083D9
:10006000FFEF2DE389E4F15020408040E1F700C02C
:1000700000000895FC01208131812F5F3F4F3183C3
:100080002083FFEF29E688E1F15020408040E1F72E
:1000900000C00000089521E6FC012083FB011182CD
:1000A0001082FFEF2DE389E4F15020408040E1F71A
:1000B00000C000000895C0980895CF93DF9300D04A
:1000C0001F92CDB7DEB781E68B831A821982D19A4F
:1000D000B89AB99ABA9AAEDF11E6B2DF2B8121360F
:1000E00051F4C09A8839924014F0B0DFF6CFCE01B7
:1000F0000396B0DFF2CF29813A8128383341A4F446
:100100008C3B924024F4CE010196B4DFE6CF1B83F2
:100110001A8219824FEF8DE399E44150804090405C
:10012000E1F700C00000D9CFC6DFD7CFF894FFCFEA
:00000001FF
