:1000000068C077C076C075C074C0B2C072C071C01D
:1000100070C06FC06EC03332206279746573206F18
:1000200066206D656D6F7279206F756768742074D6
:100030006F20626520656E6F75676820666F72203D
:10004000616E79626F6479203A500A00474F2054FC
:10005000455250532121210A0A000A0A4D61646564
:100060002062792041726176696E642052616D610F
:100070006B726973686E616E2C2043616D64656E8E
:10008000204D696C6C65722C20616E64204E696332
:100090006B20526F73736F6D616E646F206F66209B
:1000A00074686520556E6976657269737479206F1E
:1000B00066204D6172796C616E64204E6561727369
:1000C000706163652050726F6772616D0A00CAFECD
:1000D000BABE11271FBFCFE5D0E0DEBFCDBF20E005
:1000E000A0E4B0E001C01D93A234B207E1F702D052
:1000F00053C086CF41E047BF53E052B915BF11A9A5
:1001000010A919BD18BD1EBD5DE05DBD6DE770E0B5
:1001100077BD66BD52E05BBD5BBB50E85DBB47BBD6
:1001200040E0119A50E0EE9AEE99FECF69B3552364
:1001300091F06E3AB0F7EFB7F89460A171A1EFBFFC
:10014000511304C0972F862F8B5F9F4F86179707F9
:1001500040F051E0E8CF663A30F711984F5F4A30EF
:1001600051F71BBD1DBB17BB43E045BF1098FFCF28
:100170001F930F930FB70F9310E04F935F9340A11E
:1001800051A14F5F5F4F51A940A95F914F910F91CE
:0C0190000FBF0F911F911895F894FFCF3E
:00000001FF
